S01900004E6F646F5F496E7465726D6564696F5F322E737265637B
S1130000B8C00000D7C00000D5C00000D3C00000B5
S1130010D1C00000CFC00000CDC00000CBC00000A4
S1130020C9C00000C7C00000C5C00000C3C00000B4
S1130030C1C00000BFC00000BDC00000BBC00000C4
S1130040B9C000000C940C110C9439110C94661175
S11300500C94DF10AFC00000ADC00000ABC00000C6
S1130060A9C00000A7C00000A5C00000A3C00000F4
S1130070A1C000009FC000009DC000009BC0000004
S11300800C94C0110C94ED110C941A120C9493114D
S113009091C000008FC000008DC000008BC0000024
S11300A089C0000087C000000C9474120C94A11243
S11300B00C94CE120C9447127DC000000C942813AB
S11300C00C9455130C9482130C94FB1273C000000F
S11300D071C000006FC000006DC000006BC0000064
S11300E069C000000C948C0B0C94960B0C94820B3E
S11300F00C94010B0C942C0B0C94A00B0C94D60AAE
S11301000C94570B57C0000055C0000053C00000AA
S113011051C000004FC000000C94B40B0C94AA0B07
S11301200C94BE0B0C94C80B0C94D20B0C94DC0BEB
S11301300C94E60B5908800874088D0874084C0860
S1130140660874087408740874087408200874082D
S113015074087408740874087408AC087408740883
S1130160E50804030302020100FFFEFDFCFBF9F7AE
S1130170F4EF11241FBECFEFD1E8DEBFCDBF00E006
S11301800CBF12E0A0E0B2E0E4E1FCE200E00BBF4F
S113019002C007900D92A430B107D9F725E0A4E07E
S11301A0B2E001C01D92A335B207E1F70E94DD144D
S11301B00C94081625CF0E94871020910802222350
S11301C0D9F04091520530E020910802642F732F3A
S11301D00E940615FB018FEF9FEF642F732F0E947F
S11301E0061530E0629FC001639F900D729F900DD1
S11301F011248E0F9F1F08956091520570E00E9494
S11302000615CB0108950E948C100E94B010109224
S11302100402109205021092060210920702109234
S11302200A02109209020C94BD100E949A101092B6
S113023008020895E8DFF9DF0C94A1100F931F93CF
S1130240CF93DF93EC010E9487108C01BE0180E004
S113025090E02091520530E040E050E00E94F71415
S1130260DC01CB01A80160E070E0480F591F6A1F50
S11302707B1F40930402509305026093060270931F
S113028007024091040250910502609106027091A8
S11302900702AB01662777274093040250930502B7
S11302A06093060270930702409104025091050284
S11302B060910602709107024115510561057105AF
S11302C091F04091040250910502609106027091F0
S11302D007020196080F191F10930A0200930902DE
S11302E00E948C1008C0080F191F10930A02009373
S11302F009020E9493108091090290910A028436A7
S1130300910530F48C599F4F90930A02809309020F
S11303108091090290910A020E94A510DF91CF9169
S11303201F910F910895109208020E94BF108093AC
S1130330520508958091040290910502A09106024D
S1130340B09107020097A105B105C9F0809104029C
S113035090910502A0910602B09107020197A109AC
S1130360B1098093040290930502A0930602B0930E
S113037007020097A105B10511F40E949310809122
S113038008028F5F8093080290915205891748F004
S113039010920802E0910B02F0910C02309709F0E0
S11303A0199508950E948C10E0910D02F0910E02AF
S11303B0309709F01995089590930C0280930B02DD
S11303C0089590930E0280930D0208950895CF939B
S11303D0DF93CFE7D4E021E7DE011D922A95E9F708
S11303E0DC011796ED91FC91189721E7DE0101904D
S11303F00D922A95E1F7FC0181819281F8D4288538
S113040039856A858B852230310509F0D9C081117F
S113041006C044E050E089E894E04BD2A4C18130A6
S113042031F444E050E089E894E043D29CC1823046
S113043031F444E050E089E894E03BD294C1843044
S113044031F444E050E089E894E033D28CC1853043
S113045031F444E050E089E894E02BD284C1863042
S113046031F444E050E089E894E023D27CC1873041
S113047031F444E050E089E894E01BD274C1883040
S113048031F444E050E089E894E013D26CC189303F
S113049031F444E050E089E894E00BD264C18A303E
S11304A031F444E050E089E894E003D25CC18B303D
S11304B031F444E050E089E894E0FBD154C18C303D
S11304C031F444E050E089E894E0F3D14CC18D303C
S11304D031F444E050E089E894E0EBD144C18E303B
S11304E031F444E050E089E894E0E3D13CC18F303A
S11304F031F444E050E089E894E0DBD134C1803148
S113050031F444E050E089E894E0D3D12CC1823145
S113051031F444E050E089E894E0CBD124C1833144
S113052031F444E050E089E894E0C3D11CC1843143
S113053031F444E050E089E894E0BBD114C1853142
S113054031F444E050E089E894E0B3D10CC1863141
S113055031F444E050E089E894E0ABD104C1873140
S113056031F444E050E089E894E0A3D1FCC0883140
S113057031F444E050E089E894E09BD1F4C08A313E
S113058031F444E050E089E894E093D1ECC08B313D
S113059031F444E050E089E894E08BD1E4C08C313C
S11305A031F444E050E089E894E083D1DCC08D313B
S11305B009F0D9C044E050E089E894E07AD1D3C08E
S11305C02430310509F0CFC0843031F442E050E0EA
S11305D089E894E06ED1C7C0813031F442E050E044
S11305E089E894E066D1BFC0823031F442E050E043
S11305F089E894E05ED1B7C0853031F442E050E040
S113060089E894E056D1AFC0863031F442E050E03E
S113061089E894E04ED1A7C0873031F442E050E03D
S113062089E894E046D19FC0883031F442E050E03C
S113063089E894E03ED197C0893031F442E050E03B
S113064089E894E036D18FC08A3031F442E050E03A
S113065089E894E02ED187C08B3031F442E050E039
S113066089E894E026D17FC08C3031F442E050E038
S113067089E894E01ED177C08D3031F442E050E037
S113068089E894E016D16FC08E3031F442E050E036
S113069089E894E00ED167C08F3031F442E050E035
S11306A089E894E006D15FC0803131F442E050E043
S11306B089E894E0FED057C0823131F442E050E042
S11306C089E894E0F6D04FC0833131F442E050E041
S11306D089E894E0EED047C0843131F442E050E040
S11306E089E894E0E6D03FC0853131F442E050E03F
S11306F089E894E0DED037C0863131F442E050E03E
S113070089E894E0D6D02FC0873131F442E050E03C
S113071089E894E0CED027C0883131F442E050E03B
S113072089E894E0C6D01FC08A3131F442E050E039
S113073089E894E0BED017C08B3131F442E050E038
S113074089E894E0B6D00FC08C3131F442E050E037
S113075089E894E0AED007C08D3129F442E050E03E
S113076089E894E0A6D0DF91CF91089508954F923F
S11307705F926F927F928F92AF92CF92EF920F938C
S11307801F93CF93DF93CDB7DEB7A9E8B0E0AE19DE
S1130790B109FD01EF5EFD4F3F01EE2079F0D80174
S11307A044244A944E0C512C9FEF491A590A040DC3
S11307B0151D9D919193A017B107D9F7423061F4AB
S11307C03BE03E0DD3014091390550913A055E93CB
S11307D04E9340E050E826C0D301189731E13E0D16
S11307E0EDE2F5E090819C93918111969C93119791
S11307F0928112969C931297938113969C931397CC
S1130800948114969C931497958115969C931597AF
S1130810968116969C931697978117969C93179793
S113082040E050EC823059F4FB0180819181FD015C
S1130830929382933F01CA01806498600FC03D0186
S1130840F8E06F1A71083A5F88E0FB01D301019068
S11308500D928A95E1F7CA0180649C604EEF5AECD0
S1130860F30132975183408331972083C11002C032
S1130870816001C08162F301359791838083D30144
S113088016973C93B0931902A0931802482D6A2D31
S113089081E192E00E94930FDF91CF911F910F911C
S11308A0EF90CF90AF908F907F906F905F904F902C
S11308B008958F92AF92CF92EF920F931F93CF939D
S11308C0DF931F921F92CDB7DEB74430510529F450
S11308D024E030E03A83298307C04230510521F4F3
S11308E022E030E03A83298320910F0230911002F4
S11308F0A9014F5F5F4F5093100240930F02812C68
S11309006894AA24A1F8C12CE62E8C0142E0BE0111
S11309106F5F7F4F82E02BDF0F900F90DF91CF91BD
S11309201F910F91EF90CF90AF908F90089586E034
S11309300C94C00E0895CF93DF9300D000D0CDB7B0
S1130940DEB739D036D0AED17FD58111FFCF7894C0
S113095083E090E09A8389838EEF9AEC9C838B8367
S11309608BE08D831E82BE016F5F7F4F83E50E9403
S1130970EF0CBE016D5F7F4F80E50E94EF0CBE015E
S11309806B5F7F4F80E00E94EF0CBE016A5F7F4F78
S113099084E00E94EF0C62E080E00E94CF0FC7DF8A
S11309A026960FB6F894DEBF0FBECDBFDF91CF9170
S11309B0089508950895CF93DF931F92CDB7DEB7BE
S11309C08FEF80936400809365008FB78983F894D8
S11309D089815F9350E85093610050E05093610027
S11309E05F918FBF0F90DF91CF910895CF93DF93E5
S11309F01F92CDB7DEB79FB79983F894998182305F
S1130A0040F4E82FF0E0EC59FF4F609580816823B3
S1130A1060839FBF0F90DF91CF910895CF93DF93B1
S1130A201F92CDB7DEB79FB79983F894998182302E
S1130A3038F4E82FF0E0EC59FF4F8081682B608395
S1130A409FBF0F90DF91CF9108958091A0028823DA
S1130A5019F081E08093240508951F93CF93DF93C9
S1130A601F92CDB7DEB78091F0049091F104019606
S1130A709093F1048093F0048FB78983F8941981DB
S1130A8080919F028F3FE9F190E0FC01EE0FFF1F80
S1130A909C01220F331F220F331F220F331FE20F3B
S1130AA0F31FEE50FB4F218521112BC0FC01EE0FEB
S1130AB0FF1F880F991F880F991F880F991FE80F30
S1130AC0F91FEE50FB4F80819181A281B381209167
S1130AD0F0043091F1042A173B0799F4AFDB8091BD
S1130AE09F0290E0FC01EE0FFF1F880F991F880FF3
S1130AF0991F880F991FE80FF91FEE50FB4F81E0F3
S1130B0081871FBF0F90DF91CF911F9108950F939D
S1130B101F93CF93DF93C82F8F3F09F460C00091D8
S1130B20F0041091F10447DB4091F0045091F1047A
S1130B3004171507A1F7D0E060E070E0FE01EE0FA6
S1130B40FF1F9E01220F331F220F331F220F331F5B
S1130B50E20FF31FEE50FB4FBA0155274427A0E0E4
S1130B60B0E0482B592B6A2B7B2B80819181A28189
S1130B70B381841B950BA60BB70B8F3F2FEF920706
S1130B80A2072FE7B20738F59E01220F331F220F69
S1130B90331F220F331FFE01EE0FFF1FE20FF31F5F
S1130BA0EE50FB4F218521111BC0009721E0A207C5
S1130BB0B105B0F443DBCE01880F991FCC0FDD1FC4
S1130BC0CC0FDD1FCC0FDD1FC80FD91FCE50DB4F5C
S1130BD081E0898705C081E08093240501C013DB8F
S1130BE0DF91CF911F910F9108958091240588235F
S1130BF009F457C0109224058091A002882309F4B7
S1130C0050C080919E028F3F59F480919D028F3F86
S1130C1039F480919F0280939D0280939E0215C0B7
S1130C2020919F0280919D0290E0FC01EE0FFF1F36
S1130C30880F991F880F991F880F991FE80FF91FB4
S1130C40EE50FB4F208720939D0280919F0290E0FD
S1130C50FC01EE0FFF1F880F991F880F991F880F43
S1130C60991FE80FF91FEE50FB4F808580939F0278
S1130C7020919D0230E0F901EE0FFF1F220F331F78
S1130C80220F331F220F331FE20FF31FEE50FB4FCF
S1130C909FEF90879091A00291509093A0029111A0
S1130CA036CF08951092A002109224051092F104F8
S1130CB01092F0048FEF80939F0280939E028093A2
S1130CC09D02E2EFF4E024E235E08087158214828D
S1130CD03A96E217F307C9F710929C028DE295E069
S1130CE06BDB85E295E06DDB1ECB08950F931F93BC
S1130CF0CF93DF931F921F92CDB7DEB78FB78A834E
S1130D00F8941A8172DF1FBF1FEF012F37C08FB70E
S1130D108983F894298180919E0290E0DC01AA0FD6
S1130D20BB1F880F991F880F991F880F991FA80F41
S1130D30B91FAE50BB4F18969C9118971496ED911D
S1130D40FC91159716964D915C91179718961C93E4
S1130D50189715961C921E92149717961C921E9221
S1130D60169719961C9290939E029F3F11F400933C
S1130D709D022FBF309711F0CA01199580919E02F0
S1130D808F3F29F60F900F90DF91CF911F910F9114
S1130D90089580E00895AACF0895CF93DF9381EA60
S1130DA092E0B0D0C6EAD2E082EB92E099838883E5
S1130DB0BE0181EA92E0ADD08DE393E09D838C8304
S1130DC06AEA72E081EA92E0A4D088EC93E0998721
S1130DD088876EEA72E081EA92E09BD0DF91CF913E
S1130DE0089560E070E081EA92E0B8C00895009749
S1130DF021F0BC0181EA92E08CC008958F929F9209
S1130E00AF92BF92CF92DF92EF92FF920F931F9314
S1130E10CF93DF931F92CDB7DEB72FB72983F89412
S1130E208980DC0114962C91222309F456C07A019E
S1130E30962E5C01FC0100811181452BE1F0011526
S1130E40110509F44DC0680101C08901D70112964A
S1130E506D917C911397ED91FC91D8018D919C91AA
S1130E601995811109C0F801228133816801211586
S1130E70310559F735C068010115110599F1911033
S1130E8031C0D5018D919C9111970817190731F440
S1130E90F801828193818D939C9308C0D8011296A6
S1130EA08D919C911397F60193838283D5011296B9
S1130EB08D919C9113970817190721F41396DC92CE
S1130EC0CE921297F501848181508483808191812F
S1130ED0892B41F41382128205C000E010E002C0A5
S1130EE000E010E08FBEC8010F90DF91CF911F91F9
S1130EF00F91FF90EF90DF90CF90BF90AF909F90B5
S1130F008F900895FC011182108213821282148240
S1130F100895CF93DF931F92CDB7DEB7FC018FB74F
S1130F208983F89499818481811103C071836083DA
S1130F3006C0A281B38113967C936E931297738338
S1130F406283DB0113961C921E92129784818F5F39
S1130F5084839FBF0F90DF91CF910895AB0160E030
S1130F604DCF089504C0615071098109910961153B
S1130F70710581059105B9F708950F931F93CF93D8
S1130F80809141018F718830A1F481E080934F01F9
S1130F9089E080934201C3E00FE411E0F80180810D
S1130FA080FD07C063E970E080E090E0DBDFC150C2
S1130FB0A9F7CF911F910F9108951F93CF93DF93BA
S1130FC01F92CDB7DEB7182F80914C058F3051F5A5
S1130FD01F3009F438C11092500582E19CE0E1D23F
S1130FE08FB78983F89499817894E9E3F1E080815B
S1130FF08D7F8083809150058823E1F39FBF8FEF1D
S113100080934F0188E480934E01EDE4F1E0808108
S113101084608083183011F0133021F488E08093C9
S11310204C0511C1812F90E0FC013397E731F105A4
S113103008F05AC08827E656FF4F8F4F0C942D15A1
S113104083E080934201EDE4F1E080818B7F808333
S11310500E94AD1580936D01EEE6F1E080819770FA
S1131060887F892B80838FEF80934F0180E8809362
S11310704E0162E070E080E090E074DFE9E3F1E0CB
S11310808081826080836FE270E080E090E06ADFBC
S11310908FE080934C05D7C080914C05883021F1B6
S11310A088E08093420162E070E080E090E05ADFE3
S11310B01BC080914C058830B9F083E080934201D5
S11310C062E070E080E090E04DDF0EC080914C055E
S11310D0883049F018F4863039F409C0863139F083
S11310E0893111F404C049DFE1E4F1E0A6C089E0EC
S11310F08093420162E070E080E090E033DFF4CF5F
S113110080914C05883019F0893071F302C035DFC5
S1131110EBCF84E080934201E7CF80914C05893086
S113112041F018F4883071F0DFCF863111F0893145
S1131130D9F686E08093420162E070E080E090E0BE
S113114011DFD2CF1ADF86E08093420162E070E0C3
S113115080E090E007DFC8CF80914C05883091F0A3
S113116018F48630C9F0C0CF893019F0893109F0FC
S1131170BBCF86E18093420162E070E080E090E0C2
S1131180F1DEB2CFFADE86E18093420162E070E0E4
S113119080E090E0E7DEA8CF89E08093420162E03E
S11311A070E080E090E0DEDE809141018F718093F9
S11311B04C05893009F047C086E18093420162E022
S11311C070E080E090E0CEDE8FCF80914C058830D7
S11311D051F118F4863079F087CF893019F08631CF
S11311E051F082CF89E18093420162E070E080E0B7
S11311F090E0B8DE79CF89E08093420162E070E04C
S113120080E090E0AFDE809141018F7180934C05C6
S11312108930C9F489E18093420162E070E080E0A2
S113122090E0A0DE61CFA9DE89E18093420162E013
S113123070E080E090E096DE57CF80818F718093DC
S11312404C058F31D1F30F90DF91CF911F91089509
S1131250CF93DF9380912505882319F1809151055F
S113126081111FC08091530490915404892B41F43F
S11312708BE8B7DD9093540480935304892B89F051
S113128010922505CCE4D1E088818F77888363E0D0
S113129070E080E090E066DE88818068888386E183
S11312A08CDE80912A05882341F060E070E086E2BC
S11312B095E054DE009709F024D5809151058230E1
S11312C009F485D5DF91CF91089504C06150710967
S11312D0810991096115710581059105B9F7089591
S11312E0FF920F931F93CF93DF9386E066DE8630E1
S11312F0E1F7E5E5F1E080818F77808310924E017C
S11313006894FF24F3F8C0E0D0E006E411E0F801AB
S11313109081CC0FDD1FCC0FDD1F9076292F30E09C
S113132036952795329522952F7023273F702327D2
S1131330C22BD32B62E070E080E090E0C6DFFA9429
S1131340F110E5CF83E039DE8FEF80934F0188E41D
S113135080934E01CE010E94B015DF91CF911F9171
S11313600F91FF900895FF920F931F93CF93DF93F4
S1131370F82EC9E3D1E088818D7F888361E471E030
S113138080E090E0A2DF88818E7F888362E070E055
S113139080E090E09ADF88818160888366E870E06D
S11313A080E090E092DF809141018F71CAE001E416
S11313B011E00AC066E870E080E090E086DFF801A2
S11313C080818F71C150C9F18830A1F780934C0599
S11313D087DF0E94AD1580936D01EEE6F1E0808118
S11313E09770887F892B8083808180628083ECE47E
S11313F0F1E080818068808388E480934E018FEFE0
S113140080935601EDE4F1E080818C7F82608083DB
S1131410AAE4B1E08C91807F83608C9380818860A2
S11314208083808184608083F11030D27DD21092D9
S113143051051092250580E001C085E8DF91CF9128
S11314401F910F91FF900895CF92DF92EF92FF9238
S11314500F931F93CF93DF9314BE80E180933501E4
S113146080933401809333018093320192DC8111A3
S11314706DC060E481E0BADAC9E3D1E088818160BB
S1131480888388818D7F88836BEF71E080E090E0B2
S11314901CDF88818E7F888362E070E080E090E0CA
S11314A014DF88818160888366E870E080E090E0E2
S11314B00CDF809141018F71CAE001E411E00BC09F
S11314C066E870E080E090E000DFF80180818F71D1
S11314D0C15009F451C0883099F780934C0580912C
S11314E05C01843909F048C035C00E94AD15F8018B
S11314F081938F01EC15FD05C1F7F701208131813E
S1131500428153816481758186819781AFEF0E9406
S11315104E15ADEF0E945A1521F018F00DE215E0BA
S1131520E4CF80EF9BE038D081E09CE030D082E1D2
S11315309CE037D032DC8BE854DC909354048093E5
S1131540530486E295E0DEDCCBD517C0C5E815C0B0
S1131550C5E813C081E007DFC82F8111F9CF0F2E32
S1131560FDE2EF2EF5E0FF2EF02D0F2EF5E3CF2E4A
S1131570F5E0DF2EF02DC1CFC5E88C2FDF91CF91A0
S11315801F910F91FF90EF90DF90CF90089590936B
S11315905C0480935B04089590935A0480935904E7
S11315A00895909356048093550408951F920F92C2
S11315B00FB60F9211240BB60F922F933F934F93B4
S11315C05F936F937F938F939F93AF93BF93EF93A7
S11315D0FF93E0915B04F0915C041995FF91EF9106
S11315E0BF91AF919F918F917F916F915F914F9137
S11315F03F912F910F900BBE0F900FBE0F901F9035
S113160018951F920F920FB60F9211240BB60F92DA
S11316102F933F934F935F936F937F938F939F93F6
S1131620AF93BF93EF93FF93E0915904F0915A0461
S11316301995FF91EF91BF91AF919F918F917F91F8
S11316406F915F914F913F912F910F900BBE0F902F
S11316500FBE0F901F9018951F920F920FB60F9206
S113166011240BB60F922F933F934F935F936F9375
S11316707F938F939F93AF93BF93EF93FF93E091E7
S11316805704F09158041995FF91EF91BF91AF91D0
S11316909F918F917F916F915F914F913F912F9186
S11316A00F900BBE0F900FBE0F901F9018951F92B6
S11316B00F920FB60F9211240BB60F922F933F93F4
S11316C04F935F936F937F938F939F93AF93BF9346
S11316D0EF93FF93E0915504F09156041995FF910F
S11316E0EF91BF91AF919F918F917F916F915F9196
S11316F04F913F912F910F900BBE0F900FBE0F9003
S11317001F9018951F920F920FB60F9211240F90ED
S11317100FBE0F901F9018951F920F920FB60F9245
S113172011240F900FBE0F901F9018951F920F92C7
S11317300FB60F9211240F900FBE0F901F901895A3
S11317401F920F920FB60F9211240F900FBE0F909D
S11317501F9018951F920F920FB60F9211240F909D
S11317600FBE0F901F9018951F920F920FB60F92F5
S113177011240F900FBE0F901F9018951F920F9277
S11317800FB60F9211240F900FBE0F901F90189553
S11317901F920F920FB60F9211240F900FBE0F904D
S11317A01F9018951F920F920FB60F9211240F904D
S11317B00FBE0F901F9018951F920F920FB60F92A5
S11317C011240F900FBE0F901F9018951F920F9227
S11317D00FB60F9211240F900FBE0F901F90189503
S11317E01F93CF93DF931F92CDB7DEB78FB7898353
S11317F0F894198119D21FBF0F90DF91CF911F91D7
S113180008951F93CF93DF931F92CDB7DEB78FB7A1
S11318108983F8941981A6D31FBF0F90DF91CF91CC
S11318201F91089581E080935005089585FD03C0BC
S1131830982F9F7304C0982F91959F719195E2E61C
S1131840F1E02491291754F48491803EB4F080325D
S1131850B4F48823CCF48F71806216C0E1E7F1E020
S1131860249192178CF48491803E5CF080325CF475
S1131870882354F48F71806207C080E205C08FE131
S113188003C080E201C08FE180680895CF93DF93A5
S1131890CDE2D5E084E08C8B83E08D8B2FEF3FEF9E
S11318A03F872E873D872C879BE09B8B188E40E0DB
S11318B058EF6FEF77E0488759876A877B872AE07C
S11318C031E0398B288B9AE0998F92E09A8F95E0DA
S11318D09B8F8C8F84E8AADF8F8B81E08A8B1E8A92
S11318E0DF91CF91089585FD02C08F7303C0819568
S11318F08F718195E2E6F1E0949189173CF4E3E677
S1131900F1E021E0949189173CF001C020E09817A0
S11319104CF48FEF820F08952F5F3196203191F7A9
S113192080E00895822F0895CF93DF93EDE2F5E0F0
S1131930868580936201878580936301E4E6F1E004
S1131940ADE2B5E08D918193EC3631E0F307D1F748
S1131950EDE2F5E0848580936001858580936101E3
S113196048E451E0DA018C912289B0E22B9F900186
S1131970112420768F79822BDA018C93CFE6D1E083
S1131980888195899F70807F892B88832EE631E03A
S1131990D9018C919689990F990F990F9870877F27
S11319A0892B8C932881938DB0E19B9FC0011124D6
S11319B0922F9F70892B8883DA018C9193899F7170
S11319C0807E892B8C9387898EDFE5E4F1E090811A
S11319D0907F8F70892B8083DF91CF910895CF936F
S11319E0DF938E3441F0893561F4FB01808180936B
S11319F0490580E00BC1FB0180818093410580E0B3
S1131A0005C190914C059F3009F4DCC08B3009F47A
S1131A10C9C080F4EB01823009F484C020F4882327
S1131A2009F446C0D1C0833009F48CC0843009F471
S1131A305AC0CAC0833579F128F48F3451F0803507
S1131A40E9F0C2C0873509F456C0803F09F48BC061
S1131A50BBC0FB018081EDE2F5E0858B938D981787
S1131A6010F490934205EFE6F1E0808190914205F5
S1131A709F70807F892B808380E0C8C0FB019081A8
S1131A808181EDE2F5E096878787909362018093E8
S1131A90630180E0BBC0FB0190818181EDE2F5E050
S1131AA094878587909360018093610180E0AEC044
S1131AB08091510581118AC0888140E058EF6FEF11
S1131AC077E0082E04C076956795579547950A9454
S1131AD0D2F740FF7DC0983009F480C088E06DDA09
S1131AE08830E1F786C080915105811173C08881E7
S1131AF0811172C08BC0FB019081EDE2F5E0938F00
S1131B008589981710F490934205EFE6F1E08081FF
S1131B10282F2F7030E1939FC0011124822B8083E2
S1131B2080E074C08881CDE2D5E08F8B7FDE8F8B1F
S1131B30DADEE5E4F1E09081907F8F70892B808379
S1131B4080E064C0888180933F05E8E4F1E020816F
S1131B5030E2839FC00111248076922F9F79892BD4
S1131B60808380E053C0FB01B081A1815281438115
S1131B703481258196818781EDE2F5E0B083A183EC
S1131B80528343833483258396838783E4E6F1E099
S1131B90ADE2B5E08D918193EC3631E0F307D1F7F6
S1131BA080E034C0FB01808180934305EEE6F1E0E0
S1131BB09081880F880F880F8870977F892B808386
S1131BC080E024C081E822C084EF20C086E81EC0E3
S1131BD088EE1CC086E81AC088EE18C080934005C1
S1131BE0E8E4F1E09081907E8F71892B808380E01E
S1131BF00DC0888180934005E8E4F1E09081907EF7
S1131C008F71892B808386E1D8D980E0DF91CF91D1
S1131C10089504C061507109810991096115710524
S1131C2081059105B9F70895CF92DF92EF92FF9263
S1131C300F931F93CF93DF93E0915304F0915404D7
S1131C40309771F4CCE4D1E088818F77888363E0A6
S1131C5070E080E090E0DDDF88818068888348C0A0
S1131C600091470110917B0111230CF441C0E080E5
S1131C70F18082E0810FEBE8F0E0E81BF109E70175
S1131C80CE0FDF1FC12ED12CA6014F5F5F4F60E83E
S1131C9071E0CE0170D7FE011293D7011896FC9320
S1131CA0EE931797EC0DFD1D028360915304709120
S1131CB0540486E295E02DD98BE893D8909354048C
S1131CC080935304892B21F481E0809325050DC072
S1131CD0CCE4D1E088818F77888363E070E080E092
S1131CE090E097DF88818068888380E480934F0147
S1131CF0DF91CF911F910F91FF90EF90DF90CF90E4
S1131D000895CF93DF93AC01FC01C081D181AF81F1
S1131D10B8858C9180934D05E82FF0E03196EA0F59
S1131D20FB1F808131813D3320F4311103C031E048
S1131D3001C03CE382958695869583702FEF829F40
S1131D40C0011124389FB001399F700D11249B01EB
S1131D50A3E8BDE28AD696958795929582958F7071
S1131D6089279F7089278F3F910511F008F08FEF25
S1131D7080835A834983CE012ED6DF91CF91089573
S1131D8090915105911116C0883029F416D91092FA
S1131D90250588E008958091530490915404892B7B
S1131DA021F086E10AD986E0089581E08093250533
S1131DB086E0089586E8089504C061507109810998
S1131DC091096115710581059105B9F7089510927E
S1131DD0510580915D04833069F028F4882391F0E3
S1131DE0813031F00DC0853039F0873039F008C0CA
S1131DF087E809C081EE07C089EE05C085E803C005
S1131E0085E801C080E060912B0570912C05E0C548
S1131E1008951F93CF93DF931F92CDB7DEB7182F8A
S1131E20662381F0ECE6F1E020819091490530E1F0
S1131E30939FC0011124922F9F70892B80831230AD
S1131E40E0F408C0ECE6F1E080818F70808312300A
S1131E50A0F40DC0ECE6F1E0808190914105990F6A
S1131E609E70817F892B808310926F011AC0ECE6EB
S1131E70F1E080818E60808314C0EDE2F5E0838D13
S1131E8020E1829FC00111249589892B80936F01E1
S1131E90ACE6B1E08C919489990F9E70817F892B77
S1131EA08C9389E18AD88931E1F71130A1F48091CA
S1131EB04D05833140F061E073E080E090E07CDF29
S1131EC010924D050DC06BEA70E080E090E074DF85
S1131ED010924D0505C06CE070E080E090E06CDF8E
S1131EE08FB78983F8941981E9E3F1E080818260F6
S1131EF080830000000080818D7F808360914E0587
S1131F0070914F05FB01408150E04150510980E838
S1131F1091E031D681E0809351051FBF0F90DF918E
S1131F20CF911F910895FC0190915105911116C014
S1131F30F0932C05E0932B050780F085E02DF093BA
S1131F404F05E0934E058081815080934D05EF2B22
S1131F5039F0862F642F5DDF80E0089586E80895C8
S1131F6088EE0895809151058130C1F48091420139
S1131F7082958695877080935D0482E080935105F5
S1131F808091530490915404892B31F489E015D83D
S1131F9081E080932505089586E10FC8089588237C
S1131FA029F1EDE4F1E080818C7F80838081886079
S1131FB08083AAE4B1E08C91807F83608C938081DC
S1131FC0846080838081837009F054C080914D01C6
S1131FD083FF52C080914D0182FF50C080914A011D
S1131FE08F70833009F04CC080E00895EDE4F1E097
S1131FF08081877F8083AAE4B1E08C91807F8760B1
S11320008C93808184608083613031F480818C7F03
S11320108160808385E817C0623041F4EDE4F1E02B
S113202080818C7F8260808385E80DC0662311F0F7
S1132030633041F4EDE4F1E080818C7F808385E8B6
S113204060E001C088EE20914D01237030E070E023
S113205026173707B9F490914D0193FD15C090915F
S11320604D0192FD13C090914A019F70933079F411
S113207080E0089585E8089585E8089585E8089541
S113208085E8089585E8089585E8089585E8089524
S1132090811124C0FB018081803D2CF08FEC809362
S11320A05E046FE012C0873A2CF486EA80935E04E3
S11320B060E00BC080935E04082E000C990B865AD6
S11320C09F4F63E070E0B6D46F5FE5E5F1E0808197
S11320D0807F6F70682B608380E0089584EF08959B
S11320E086EA80935E046EE574E080E0D1DF61E00F
S11320F080E00E94F60460E180E00E94F60480E043
S113210008950C949A0108950C94D2010895809135
S11321108400909185000895EFE6F0E080818D7F42
S11321208083B19A0895B19AEFE6F0E080818260ED
S113213080830895EFE6F0E0808181608083B09A27
S1132140089580E890E082C30895E9E8F0E02081F2
S1132150922B9083E8E8F0E09081892B80830895A6
S1132160CF93DF931F92CDB7DEB78FB78983F894EF
S113217089810F90DF91CF9108958FBF0895CF93F8
S1132180DF9380E890E0EBD261E870E180E890E0D2
S1132190D4D3CFE6D0E088818160888364E870E19D
S11321A080E890E0EAD388818D7F8883E1E8F0E0DD
S11321B080818160808388E0DF91CF9108951F92B0
S11321C00F920FB60F9211240BB60F922F933F93D9
S11321D04F935F936F937F938F939F93AF93BF932B
S11321E0EF93FF93E0917D04F0917E04309709F022
S11321F01995FF91EF91BF91AF919F918F917F912D
S11322006F915F914F913F912F910F900BBE0F9063
S11322100FBE0F901F9018951F920F920FB60F923A
S113222011240BB60F922F933F934F935F936F93A9
S11322307F938F939F93AF93BF93EF93FF93E0911B
S11322407B04F0917C04309709F01995FF91EF918C
S1132250BF91AF919F918F917F916F915F914F91BA
S11322603F912F910F900BBE0F900FBE0F901F90B8
S113227018951F920F920FB60F9211240BB60F925E
S11322802F933F934F935F936F937F938F939F937A
S1132290AF93BF93EF93FF93E0917904F0917A04A5
S11322A0309709F01995FF91EF91BF91AF919F91EC
S11322B08F917F916F915F914F913F912F910F90EB
S11322C00BBE0F900FBE0F901F9018951F920F9288
S11322D00FB60F9211240BB60F922F933F934F9387
S11322E05F936F937F938F939F93AF93BF93EF937A
S11322F0FF93E0917704F0917804309709F01995F1
S1132300FF91EF91BF91AF919F918F917F916F91C9
S11323105F914F913F912F910F900BBE0F900FBE85
S11323200F901F9018951F920F920FB60F921124C1
S11323300BB60F922F933F934F935F936F937F93BB
S11323408F939F93AF93BF93EF93FF93E0917504A3
S1132350F0917604309709F01995FF91EF91BF91B0
S1132360AF919F918F917F916F915F914F913F9129
S11323702F910F900BBE0F900FBE0F901F901895CA
S11323801F920F920FB60F9211240BB60F922F9338
S11323903F934F935F936F937F938F939F93AF93E9
S11323A0BF93EF93FF93E0917304F091740430971B
S11323B009F01995FF91EF91BF91AF919F918F9182
S11323C07F916F915F914F913F912F910F900BBE31
S11323D00F900FBE0F901F9018951F920F920FB67B
S11323E00F9211240BB60F922F933F934F935F9349
S11323F06F937F938F939F93AF93BF93EF93FF93C9
S1132400E0917104F0917204309709F01995FF91ED
S1132410EF91BF91AF919F918F917F916F915F9158
S11324204F913F912F910F900BBE0F900FBE0F90C5
S11324301F9018951F920F920FB60F9211240BB68E
S11324400F922F933F934F935F936F937F938F9349
S11324509F93AF93BF93EF93FF93E0916F04F09139
S11324607004309709F01995FF91EF91BF91AF91E6
S11324709F918F917F916F915F914F913F912F9198
S11324800F900BBE0F900FBE0F901F9018951F92C8
S11324900F920FB60F9211240BB60F922F933F9306
S11324A04F935F936F937F938F939F93AF93BF9358
S11324B0EF93FF93E0916D04F0916E04309709F06F
S11324C01995FF91EF91BF91AF919F918F917F915A
S11324D06F915F914F913F912F910F900BBE0F9091
S11324E00FBE0F901F9018951F920F920FB60F9268
S11324F011240BB60F922F933F934F935F936F93D7
S11325007F938F939F93AF93BF93EF93FF93E09148
S11325106B04F0916C04309709F01995FF91EF91D9
S1132520BF91AF919F918F917F916F915F914F91E7
S11325303F912F910F900BBE0F900FBE0F901F90E5
S113254018951F920F920FB60F9211240BB60F928B
S11325502F933F934F935F936F937F938F939F93A7
S1132560AF93BF93EF93FF93E0916904F0916A04F2
S1132570309709F01995FF91EF91BF91AF919F9119
S11325808F917F916F915F914F913F912F910F9018
S11325900BBE0F900FBE0F901F9018951F920F92B5
S11325A00FB60F9211240BB60F922F933F934F93B4
S11325B05F936F937F938F939F93AF93BF93EF93A7
S11325C0FF93E0916704F0916804309709F019953E
S11325D0FF91EF91BF91AF919F918F917F916F91F7
S11325E05F914F913F912F910F900BBE0F900FBEB3
S11325F00F901F9018951F920F920FB60F921124EF
S11326000BB60F922F933F934F935F936F937F93E8
S11326108F939F93AF93BF93EF93FF93E0916504E0
S1132620F0916604309709F01995FF91EF91BF91ED
S1132630AF919F918F917F916F915F914F913F9156
S11326402F910F900BBE0F900FBE0F901F901895F7
S11326501F920F920FB60F9211240BB60F922F9365
S11326603F934F935F936F937F938F939F93AF9316
S1132670BF93EF93FF93E0916304F0916404309768
S113268009F01995FF91EF91BF91AF919F918F91AF
S11326907F916F915F914F913F912F910F900BBE5E
S11326A00F900FBE0F901F9018951F920F920FB6A8
S11326B00F9211240BB60F922F933F934F935F9376
S11326C06F937F938F939F93AF93BF93EF93FF93F6
S11326D0E0916104F0916204309709F01995FF913B
S11326E0EF91BF91AF919F918F917F916F915F9186
S11326F04F913F912F910F900BBE0F900FBE0F90F3
S11327001F9018951F920F920FB60F9211240BB6BB
S11327100F922F933F934F935F936F937F938F9376
S11327209F93AF93BF93EF93FF93E0915F04F09176
S11327306004309709F01995FF91EF91BF91AF9123
S11327409F918F917F916F915F914F913F912F91C5
S11327500F900BBE0F900FBE0F901F9018951F93F4
S1132760CF93DF931F92CDB7DEB72FB72983F894A9
S11327701981009709F464C08837910549F461E030
S113278080E00E94F60460E180E00E94F60458C0F4
S1132790803C910529F462E080E00E94F60450C078
S11327A08C34910529F464E080E00E94F60448C06A
S11327B08038910529F468E080E00E94F60440C066
S11327C08434910529F460E280E00E94F60438C064
S11327D0803B910529F460E480E00E94F60430C057
S11327E0883B910529F460E880E00E94F60428C043
S11327F0883C910529F461E081E00E94F60420C040
S11328008039910529F468E081E00E94F60418C03B
S1132810803A910529F460E181E00E94F60410C039
S1132820803221E0920729F460E281E00E94F604FC
S113283007C08334914021F460E481E00E94F604EF
S11328401FBF0F90DF91CF911F9108951F93CF93D6
S1132850DF931F92CDB7DEB72FB72983F894198180
S1132860009709F464C08837910549F461E080E079
S11328700E940E0560E180E00E940E0558C0803C75
S1132880910529F462E080E00E940E0550C08C346A
S1132890910529F464E080E00E940E0548C0803868
S11328A0910529F468E080E00E940E0540C084345C
S11328B0910529F460E280E00E940E0538C0803B57
S11328C0910529F460E480E00E940E0530C0883B45
S11328D0910529F460E880E00E940E0528C0883C38
S11328E0910529F461E081E00E940E0520C0803941
S11328F0910529F468E081E00E940E0518C0803A31
S1132900910529F460E181E00E940E0510C0803237
S113291021E0920729F460E281E00E940E0507C0DD
S11329208334914021F460E481E00E940E051FBFCE
S11329300F90DF91CF911F9108958038910529F46C
S113294070937E0460937D0408958039910529F481
S113295070937604609375040895803A910529F480
S113296070936E0460936D0408958032914021F455
S1132970709366046093650408958038910529F482
S113298070937C0460937B0408958039910529F445
S113299070937404609373040895803A910529F444
S11329A070936C0460936B0408958032914021F419
S11329B0709364046093630408950E949B040E94CE
S11329C0DA040E94CB060E9428090E94E601F9CF8E
S11329D00C94B6030895CF93DF93EC010E94E701B2
S11329E089819A810E94F706DF91CF910895DB01D6
S11329F08F939F9349D0BF91AF91A29F800D911D5A
S1132A00A39F900DB29F900D11240895AA1BBB1B88
S1132A1051E107C0AA1FBB1FA617B70710F0A61BDA
S1132A20B70B881F991F5A95A9F780959095BC01FB
S1132A30CD01089597FB072E16F4009406D077FD78
S1132A4008D0E4DF07FC05D03EF4909581959F4FB4
S1132A500895709561957F4F0895EE0FFF1F881FAD
S1132A608BBF0790F691E02D1994A29FB001B39FFC
S1132A70C001A39F700D811D1124911DB29F700D83
S1132A80811D1124911D0895F0DFA59F900DB49F21
S1132A90900DA49F800D911D112408950024A7FD7D
S1132AA000942A0F301D401D501D601D701D801D97
S1132AB0901D08950024A7FD00942A1730054005B1
S1132AC05005600570058005900508958F929F92CA
S1132AD0AF92BF92CF92DF92EF92FF92CF93DF93A8
S1132AE0EC01688179818A819B8161157105810579
S1132AF0910521F464E279ED8BE597E02DE133EF64
S1132B0041E050E041D049015A019B01AC01A7EAE0
S1132B10B1E4BADF6B017C01ACEEB4EFA501940122
S1132B2051D0DC01CB018C0D9D1DAE1DBF1DB7FF27
S1132B3003C00197A109B04888839983AA83BB8302
S1132B409F77DF91CF91FF90EF90DF90CF90BF9070
S1132B50AF909F908F900895B9CF80E092E0B6CF68
S1132B60A0E0B0E08093000290930102A0930202DF
S1132B70B09303020895FB01DC0102C001900D92A1
S1132B8041505040D8F70895052E97FB16F4009451
S1132B900FD057FD05D01AD007FC02D046F408C068
S1132BA050954095309521953F4F4F4F5F4F089575
S1132BB090958095709561957F4F8F4F9F4F0895A5
S1132BC0B7FF62CF61DF821B930B0895A1E21A2E37
S1132BD0AA1BBB1BFD010DC0AA1FBB1FEE1FFF1FBD
S1132BE0A217B307E407F50720F0A21BB30BE40B0D
S1132BF0F50B661F771F881F991F1A9469F7609554
S1132C007095809590959B01AC01BD01CF0108950D
S1072C10F894FFCF62
S1072C1401000000B7
S9030000FC
